{
  "_format": "hh-sol-artifact-1",
  "contractName": "NFTMarketplace",
  "sourceName": "contracts/NFTMarketplace.sol",
  "abi": [
    {
      "inputs": [
        {
          "internalType": "address",
          "name": "_admin",
          "type": "address"
        }
      ],
      "stateMutability": "nonpayable",
      "type": "constructor"
    },
    {
      "inputs": [],
      "name": "admin",
      "outputs": [
        {
          "internalType": "address",
          "name": "",
          "type": "address"
        }
      ],
      "stateMutability": "view",
      "type": "function"
    },
    {
      "inputs": [
        {
          "internalType": "address",
          "name": "nftContract",
          "type": "address"
        },
        {
          "internalType": "uint256",
          "name": "tokenId",
          "type": "uint256"
        }
      ],
      "name": "buyNFT",
      "outputs": [],
      "stateMutability": "payable",
      "type": "function"
    },
    {
      "inputs": [
        {
          "internalType": "address",
          "name": "nftContract",
          "type": "address"
        },
        {
          "internalType": "uint256",
          "name": "tokenId",
          "type": "uint256"
        },
        {
          "internalType": "uint256",
          "name": "price",
          "type": "uint256"
        }
      ],
      "name": "listNFT",
      "outputs": [],
      "stateMutability": "nonpayable",
      "type": "function"
    },
    {
      "inputs": [
        {
          "internalType": "address",
          "name": "",
          "type": "address"
        },
        {
          "internalType": "uint256",
          "name": "",
          "type": "uint256"
        }
      ],
      "name": "listings",
      "outputs": [
        {
          "internalType": "address",
          "name": "seller",
          "type": "address"
        },
        {
          "internalType": "uint256",
          "name": "price",
          "type": "uint256"
        }
      ],
      "stateMutability": "view",
      "type": "function"
    }
  ],
  "bytecode": "0x608060405234801561001057600080fd5b5060405161060b38038061060b83398101604081905261002f91610054565b600080546001600160a01b0319166001600160a01b0392909216919091179055610084565b60006020828403121561006657600080fd5b81516001600160a01b038116811461007d57600080fd5b9392505050565b610578806100936000396000f3fe60806040526004361061003e5760003560e01c806207df3014610043578063a82ba76f146100af578063ad05f1b4146100c4578063f851a440146100e4575b600080fd5b34801561004f57600080fd5b5061008b61005e36600461049b565b6001602081815260009384526040808520909152918352912080549101546001600160a01b039091169082565b604080516001600160a01b0390931683526020830191909152015b60405180910390f35b6100c26100bd36600461049b565b61011c565b005b3480156100d057600080fd5b506100c26100df3660046104c7565b6102c2565b3480156100f057600080fd5b50600054610104906001600160a01b031681565b6040516001600160a01b0390911681526020016100a6565b6001600160a01b0380831660009081526001602081815260408084208685528252928390208351808501909452805490941683529201549181018290529061019c5760405162461bcd60e51b815260206004820152600e60248201526d139195081b9bdd081b1a5cdd195960921b60448201526064015b60405180910390fd5b80602001513410156101e75760405162461bcd60e51b8152602060048201526014602482015273125b9cdd59999a58da595b9d081c185e5b595b9d60621b6044820152606401610193565b6001600160a01b03838116600081815260016020818152604080842088855290915280832080546001600160a01b03191681559091019190915583519051632142170760e11b81529216600483015233602483015260448201849052906342842e0e90606401600060405180830381600087803b15801561026757600080fd5b505af115801561027b573d6000803e3d6000fd5b5050825160208401516040516001600160a01b03909216935080156108fc029250906000818181858888f193505050501580156102bc573d6000803e3d6000fd5b50505050565b6040516331a9108f60e11b815260048101839052839033906001600160a01b03831690636352211e90602401602060405180830381865afa15801561030b573d6000803e3d6000fd5b505050506040513d601f19601f8201168201806040525081019061032f91906104fc565b6001600160a01b0316146103755760405162461bcd60e51b815260206004820152600d60248201526c2737ba103a34329037bbb732b960991b6044820152606401610193565b60405163e985e9c560e01b81523360048201523060248201526001600160a01b0382169063e985e9c590604401602060405180830381865afa1580156103bf573d6000803e3d6000fd5b505050506040513d601f19601f820116820180604052508101906103e39190610520565b61042f5760405162461bcd60e51b815260206004820152601860248201527f4d61726b6574706c616365206e6f7420617070726f76656400000000000000006044820152606401610193565b5060408051808201825233815260208082019384526001600160a01b03958616600090815260018083528482209682529590915291909120905181546001600160a01b031916941693909317835551910155565b6001600160a01b038116811461049857600080fd5b50565b600080604083850312156104ae57600080fd5b82356104b981610483565b946020939093013593505050565b6000806000606084860312156104dc57600080fd5b83356104e781610483565b95602085013595506040909401359392505050565b60006020828403121561050e57600080fd5b815161051981610483565b9392505050565b60006020828403121561053257600080fd5b8151801515811461051957600080fdfea2646970667358221220435261816df08645d538604440fa97a74be659a95385946fb7bde538b1a686cf64736f6c63430008140033",
  "linkReferences": {},
  "deployedLinkReferences": {}
}