{
  "_format": "hh-sol-artifact-1",
  "contractName": "NFT",
  "sourceName": "contracts/NFT.sol",
  "abi": [
    {
      "inputs": [
        {
          "internalType": "address",
          "name": "_admin",
          "type": "address"
        }
      ],
      "stateMutability": "nonpayable",
      "type": "constructor"
    },
    {
      "inputs": [
        {
          "internalType": "address",
          "name": "sender",
          "type": "address"
        },
        {
          "internalType": "uint256",
          "name": "tokenId",
          "type": "uint256"
        },
        {
          "internalType": "address",
          "name": "owner",
          "type": "address"
        }
      ],
      "name": "ERC721IncorrectOwner",
      "type": "error"
    },
    {
      "inputs": [
        {
          "internalType": "address",
          "name": "operator",
          "type": "address"
        },
        {
          "internalType": "uint256",
          "name": "tokenId",
          "type": "uint256"
        }
      ],
      "name": "ERC721InsufficientApproval",
      "type": "error"
    },
    {
      "inputs": [
        {
          "internalType": "address",
          "name": "approver",
          "type": "address"
        }
      ],
      "name": "ERC721InvalidApprover",
      "type": "error"
    },
    {
      "inputs": [
        {
          "internalType": "address",
          "name": "operator",
          "type": "address"
        }
      ],
      "name": "ERC721InvalidOperator",
      "type": "error"
    },
    {
      "inputs": [
        {
          "internalType": "address",
          "name": "owner",
          "type": "address"
        }
      ],
      "name": "ERC721InvalidOwner",
      "type": "error"
    },
    {
      "inputs": [
        {
          "internalType": "address",
          "name": "receiver",
          "type": "address"
        }
      ],
      "name": "ERC721InvalidReceiver",
      "type": "error"
    },
    {
      "inputs": [
        {
          "internalType": "address",
          "name": "sender",
          "type": "address"
        }
      ],
      "name": "ERC721InvalidSender",
      "type": "error"
    },
    {
      "inputs": [
        {
          "internalType": "uint256",
          "name": "tokenId",
          "type": "uint256"
        }
      ],
      "name": "ERC721NonexistentToken",
      "type": "error"
    },
    {
      "anonymous": false,
      "inputs": [
        {
          "indexed": true,
          "internalType": "address",
          "name": "owner",
          "type": "address"
        },
        {
          "indexed": true,
          "internalType": "address",
          "name": "approved",
          "type": "address"
        },
        {
          "indexed": true,
          "internalType": "uint256",
          "name": "tokenId",
          "type": "uint256"
        }
      ],
      "name": "Approval",
      "type": "event"
    },
    {
      "anonymous": false,
      "inputs": [
        {
          "indexed": true,
          "internalType": "address",
          "name": "owner",
          "type": "address"
        },
        {
          "indexed": true,
          "internalType": "address",
          "name": "operator",
          "type": "address"
        },
        {
          "indexed": false,
          "internalType": "bool",
          "name": "approved",
          "type": "bool"
        }
      ],
      "name": "ApprovalForAll",
      "type": "event"
    },
    {
      "anonymous": false,
      "inputs": [
        {
          "indexed": false,
          "internalType": "uint256",
          "name": "_fromTokenId",
          "type": "uint256"
        },
        {
          "indexed": false,
          "internalType": "uint256",
          "name": "_toTokenId",
          "type": "uint256"
        }
      ],
      "name": "BatchMetadataUpdate",
      "type": "event"
    },
    {
      "anonymous": false,
      "inputs": [
        {
          "indexed": false,
          "internalType": "uint256",
          "name": "_tokenId",
          "type": "uint256"
        }
      ],
      "name": "MetadataUpdate",
      "type": "event"
    },
    {
      "anonymous": false,
      "inputs": [
        {
          "indexed": true,
          "internalType": "address",
          "name": "from",
          "type": "address"
        },
        {
          "indexed": true,
          "internalType": "address",
          "name": "to",
          "type": "address"
        },
        {
          "indexed": true,
          "internalType": "uint256",
          "name": "tokenId",
          "type": "uint256"
        }
      ],
      "name": "Transfer",
      "type": "event"
    },
    {
      "inputs": [],
      "name": "admin",
      "outputs": [
        {
          "internalType": "address",
          "name": "",
          "type": "address"
        }
      ],
      "stateMutability": "view",
      "type": "function"
    },
    {
      "inputs": [
        {
          "internalType": "address",
          "name": "to",
          "type": "address"
        },
        {
          "internalType": "uint256",
          "name": "tokenId",
          "type": "uint256"
        }
      ],
      "name": "approve",
      "outputs": [],
      "stateMutability": "nonpayable",
      "type": "function"
    },
    {
      "inputs": [
        {
          "internalType": "address",
          "name": "owner",
          "type": "address"
        }
      ],
      "name": "balanceOf",
      "outputs": [
        {
          "internalType": "uint256",
          "name": "",
          "type": "uint256"
        }
      ],
      "stateMutability": "view",
      "type": "function"
    },
    {
      "inputs": [
        {
          "internalType": "uint256",
          "name": "tokenId",
          "type": "uint256"
        }
      ],
      "name": "getApproved",
      "outputs": [
        {
          "internalType": "address",
          "name": "",
          "type": "address"
        }
      ],
      "stateMutability": "view",
      "type": "function"
    },
    {
      "inputs": [
        {
          "internalType": "address",
          "name": "owner",
          "type": "address"
        },
        {
          "internalType": "address",
          "name": "operator",
          "type": "address"
        }
      ],
      "name": "isApprovedForAll",
      "outputs": [
        {
          "internalType": "bool",
          "name": "",
          "type": "bool"
        }
      ],
      "stateMutability": "view",
      "type": "function"
    },
    {
      "inputs": [
        {
          "internalType": "address",
          "name": "to",
          "type": "address"
        },
        {
          "internalType": "uint256",
          "name": "tokenId",
          "type": "uint256"
        },
        {
          "internalType": "string",
          "name": "tokenURI",
          "type": "string"
        }
      ],
      "name": "mint",
      "outputs": [],
      "stateMutability": "nonpayable",
      "type": "function"
    },
    {
      "inputs": [],
      "name": "name",
      "outputs": [
        {
          "internalType": "string",
          "name": "",
          "type": "string"
        }
      ],
      "stateMutability": "view",
      "type": "function"
    },
    {
      "inputs": [
        {
          "internalType": "uint256",
          "name": "tokenId",
          "type": "uint256"
        }
      ],
      "name": "ownerOf",
      "outputs": [
        {
          "internalType": "address",
          "name": "",
          "type": "address"
        }
      ],
      "stateMutability": "view",
      "type": "function"
    },
    {
      "inputs": [
        {
          "internalType": "address",
          "name": "from",
          "type": "address"
        },
        {
          "internalType": "address",
          "name": "to",
          "type": "address"
        },
        {
          "internalType": "uint256",
          "name": "tokenId",
          "type": "uint256"
        }
      ],
      "name": "safeTransferFrom",
      "outputs": [],
      "stateMutability": "nonpayable",
      "type": "function"
    },
    {
      "inputs": [
        {
          "internalType": "address",
          "name": "from",
          "type": "address"
        },
        {
          "internalType": "address",
          "name": "to",
          "type": "address"
        },
        {
          "internalType": "uint256",
          "name": "tokenId",
          "type": "uint256"
        },
        {
          "internalType": "bytes",
          "name": "data",
          "type": "bytes"
        }
      ],
      "name": "safeTransferFrom",
      "outputs": [],
      "stateMutability": "nonpayable",
      "type": "function"
    },
    {
      "inputs": [
        {
          "internalType": "address",
          "name": "_admin",
          "type": "address"
        }
      ],
      "name": "setAdmin",
      "outputs": [],
      "stateMutability": "nonpayable",
      "type": "function"
    },
    {
      "inputs": [
        {
          "internalType": "address",
          "name": "operator",
          "type": "address"
        },
        {
          "internalType": "bool",
          "name": "approved",
          "type": "bool"
        }
      ],
      "name": "setApprovalForAll",
      "outputs": [],
      "stateMutability": "nonpayable",
      "type": "function"
    },
    {
      "inputs": [
        {
          "internalType": "bytes4",
          "name": "interfaceId",
          "type": "bytes4"
        }
      ],
      "name": "supportsInterface",
      "outputs": [
        {
          "internalType": "bool",
          "name": "",
          "type": "bool"
        }
      ],
      "stateMutability": "view",
      "type": "function"
    },
    {
      "inputs": [],
      "name": "symbol",
      "outputs": [
        {
          "internalType": "string",
          "name": "",
          "type": "string"
        }
      ],
      "stateMutability": "view",
      "type": "function"
    },
    {
      "inputs": [
        {
          "internalType": "uint256",
          "name": "tokenId",
          "type": "uint256"
        }
      ],
      "name": "tokenURI",
      "outputs": [
        {
          "internalType": "string",
          "name": "",
          "type": "string"
        }
      ],
      "stateMutability": "view",
      "type": "function"
    },
    {
      "inputs": [
        {
          "internalType": "address",
          "name": "from",
          "type": "address"
        },
        {
          "internalType": "address",
          "name": "to",
          "type": "address"
        },
        {
          "internalType": "uint256",
          "name": "tokenId",
          "type": "uint256"
        }
      ],
      "name": "transferFrom",
      "outputs": [],
      "stateMutability": "nonpayable",
      "type": "function"
    }
  ],
  "bytecode": "0x60806040523480156200001157600080fd5b50604051620015f3380380620015f38339810160408190526200003491620000c1565b6040518060400160405280600d81526020016c27232a21b7b63632b1ba34b7b760991b815250604051806040016040528060048152602001634e46544360e01b815250816000908162000088919062000198565b50600162000097828262000198565b5050600780546001600160a01b0319166001600160a01b0393909316929092179091555062000264565b600060208284031215620000d457600080fd5b81516001600160a01b0381168114620000ec57600080fd5b9392505050565b634e487b7160e01b600052604160045260246000fd5b600181811c908216806200011e57607f821691505b6020821081036200013f57634e487b7160e01b600052602260045260246000fd5b50919050565b601f8211156200019357600081815260208120601f850160051c810160208610156200016e5750805b601f850160051c820191505b818110156200018f578281556001016200017a565b5050505b505050565b81516001600160401b03811115620001b457620001b4620000f3565b620001cc81620001c5845462000109565b8462000145565b602080601f831160018114620002045760008415620001eb5750858301515b600019600386901b1c1916600185901b1785556200018f565b600085815260208120601f198616915b82811015620002355788860151825594840194600190910190840162000214565b5085821015620002545787850151600019600388901b60f8161c191681555b5050505050600190811b01905550565b61137f80620002746000396000f3fe608060405234801561001057600080fd5b50600436106101005760003560e01c806370a0823111610097578063c87b56dd11610066578063c87b56dd1461021d578063d3fc986414610230578063e985e9c514610243578063f851a4401461025657600080fd5b806370a08231146101ce57806395d89b41146101ef578063a22cb465146101f7578063b88d4fde1461020a57600080fd5b806323b872dd116100d357806323b872dd1461018257806342842e0e146101955780636352211e146101a8578063704b6c02146101bb57600080fd5b806301ffc9a71461010557806306fdde031461012d578063081812fc14610142578063095ea7b31461016d575b600080fd5b610118610113366004610e68565b610269565b60405190151581526020015b60405180910390f35b610135610294565b6040516101249190610ed5565b610155610150366004610ee8565b610326565b6040516001600160a01b039091168152602001610124565b61018061017b366004610f1d565b61034f565b005b610180610190366004610f47565b61035e565b6101806101a3366004610f47565b6103ee565b6101556101b6366004610ee8565b61040e565b6101806101c9366004610f83565b610419565b6101e16101dc366004610f83565b610481565b604051908152602001610124565b6101356104c9565b610180610205366004610f9e565b6104d8565b610180610218366004611066565b6104e3565b61013561022b366004610ee8565b6104fb565b61018061023e3660046110e2565b61060c565b61011861025136600461114d565b610666565b600754610155906001600160a01b031681565b60006001600160e01b03198216632483248360e11b148061028e575061028e82610694565b92915050565b6060600080546102a390611180565b80601f01602080910402602001604051908101604052809291908181526020018280546102cf90611180565b801561031c5780601f106102f15761010080835404028352916020019161031c565b820191906000526020600020905b8154815290600101906020018083116102ff57829003601f168201915b5050505050905090565b6000610331826106e4565b506000828152600460205260409020546001600160a01b031661028e565b61035a82823361071d565b5050565b6001600160a01b03821661038d57604051633250574960e11b8152600060048201526024015b60405180910390fd5b600061039a83833361072a565b9050836001600160a01b0316816001600160a01b0316146103e8576040516364283d7b60e01b81526001600160a01b0380861660048301526024820184905282166044820152606401610384565b50505050565b610409838383604051806020016040528060008152506104e3565b505050565b600061028e826106e4565b6007546001600160a01b0316331461045f5760405162461bcd60e51b81526020600482015260096024820152682737ba1030b236b4b760b91b6044820152606401610384565b600780546001600160a01b0319166001600160a01b0392909216919091179055565b60006001600160a01b0382166104ad576040516322718ad960e21b815260006004820152602401610384565b506001600160a01b031660009081526003602052604090205490565b6060600180546102a390611180565b61035a338383610823565b6104ee84848461035e565b6103e833858585856108c2565b6060610506826106e4565b506000828152600660205260408120805461052090611180565b80601f016020809104026020016040519081016040528092919081815260200182805461054c90611180565b80156105995780601f1061056e57610100808354040283529160200191610599565b820191906000526020600020905b81548152906001019060200180831161057c57829003601f168201915b5050505050905060006105b760408051602081019091526000815290565b905080516000036105c9575092915050565b8151156105fb5780826040516020016105e39291906111ba565b60405160208183030381529060405292505050919050565b610604846109ed565b949350505050565b6007546001600160a01b031633146106525760405162461bcd60e51b81526020600482015260096024820152682737ba1030b236b4b760b91b6044820152606401610384565b61065c8383610a62565b6104098282610ac7565b6001600160a01b03918216600090815260056020908152604080832093909416825291909152205460ff1690565b60006001600160e01b031982166380ac58cd60e01b14806106c557506001600160e01b03198216635b5e139f60e01b145b8061028e57506301ffc9a760e01b6001600160e01b031983161461028e565b6000818152600260205260408120546001600160a01b03168061028e57604051637e27328960e01b815260048101849052602401610384565b6104098383836001610b17565b6000828152600260205260408120546001600160a01b039081169083161561075757610757818486610c1d565b6001600160a01b0381161561079557610774600085600080610b17565b6001600160a01b038116600090815260036020526040902080546000190190555b6001600160a01b038516156107c4576001600160a01b0385166000908152600360205260409020805460010190555b60008481526002602052604080822080546001600160a01b0319166001600160a01b0389811691821790925591518793918516917fddf252ad1be2c89b69c2b068fc378daa952ba7f163c4a11628f55a4df523b3ef91a4949350505050565b6001600160a01b03821661085557604051630b61174360e31b81526001600160a01b0383166004820152602401610384565b6001600160a01b03838116600081815260056020908152604080832094871680845294825291829020805460ff191686151590811790915591519182527f17307eab39ab6107e8899845ad3d59bd9653f200f220920489ca2b5937696c31910160405180910390a3505050565b6001600160a01b0383163b156109e657604051630a85bd0160e11b81526001600160a01b0384169063150b7a02906109049088908890879087906004016111e9565b6020604051808303816000875af192505050801561093f575060408051601f3d908101601f1916820190925261093c91810190611226565b60015b6109a8573d80801561096d576040519150601f19603f3d011682016040523d82523d6000602084013e610972565b606091505b5080516000036109a057604051633250574960e11b81526001600160a01b0385166004820152602401610384565b805181602001fd5b6001600160e01b03198116630a85bd0160e11b146109e457604051633250574960e11b81526001600160a01b0385166004820152602401610384565b505b5050505050565b60606109f8826106e4565b506000610a1060408051602081019091526000815290565b90506000815111610a305760405180602001604052806000815250610a5b565b80610a3a84610c81565b604051602001610a4b9291906111ba565b6040516020818303038152906040525b9392505050565b6001600160a01b038216610a8c57604051633250574960e11b815260006004820152602401610384565b6000610a9a8383600061072a565b90506001600160a01b03811615610409576040516339e3563760e11b815260006004820152602401610384565b6000828152600660205260409020610adf8282611289565b506040518281527ff8e1a15aba9398e019f0b49df1a4fde98ee17ae345cb5f6b5e2c27f5033e8ce79060200160405180910390a15050565b8080610b2b57506001600160a01b03821615155b15610bed576000610b3b846106e4565b90506001600160a01b03831615801590610b675750826001600160a01b0316816001600160a01b031614155b8015610b7a5750610b788184610666565b155b15610ba35760405163a9fbf51f60e01b81526001600160a01b0384166004820152602401610384565b8115610beb5783856001600160a01b0316826001600160a01b03167f8c5be1e5ebec7d5bd14f71427d1e84f3dd0314c0f7b2291e5b200ac8c7c3b92560405160405180910390a45b505b5050600090815260046020526040902080546001600160a01b0319166001600160a01b0392909216919091179055565b610c28838383610d14565b610409576001600160a01b038316610c5657604051637e27328960e01b815260048101829052602401610384565b60405163177e802f60e01b81526001600160a01b038316600482015260248101829052604401610384565b60606000610c8e83610d77565b600101905060008167ffffffffffffffff811115610cae57610cae610fda565b6040519080825280601f01601f191660200182016040528015610cd8576020820181803683370190505b5090508181016020015b600019016f181899199a1a9b1b9c1cb0b131b232b360811b600a86061a8153600a8504945084610ce257509392505050565b60006001600160a01b038316158015906106045750826001600160a01b0316846001600160a01b03161480610d4e5750610d4e8484610666565b806106045750506000908152600460205260409020546001600160a01b03908116911614919050565b60008072184f03e93ff9f4daa797ed6e38ed64bf6a1f0160401b8310610db65772184f03e93ff9f4daa797ed6e38ed64bf6a1f0160401b830492506040015b6d04ee2d6d415b85acef81000000008310610de2576d04ee2d6d415b85acef8100000000830492506020015b662386f26fc100008310610e0057662386f26fc10000830492506010015b6305f5e1008310610e18576305f5e100830492506008015b6127108310610e2c57612710830492506004015b60648310610e3e576064830492506002015b600a831061028e5760010192915050565b6001600160e01b031981168114610e6557600080fd5b50565b600060208284031215610e7a57600080fd5b8135610a5b81610e4f565b60005b83811015610ea0578181015183820152602001610e88565b50506000910152565b60008151808452610ec1816020860160208601610e85565b601f01601f19169290920160200192915050565b602081526000610a5b6020830184610ea9565b600060208284031215610efa57600080fd5b5035919050565b80356001600160a01b0381168114610f1857600080fd5b919050565b60008060408385031215610f3057600080fd5b610f3983610f01565b946020939093013593505050565b600080600060608486031215610f5c57600080fd5b610f6584610f01565b9250610f7360208501610f01565b9150604084013590509250925092565b600060208284031215610f9557600080fd5b610a5b82610f01565b60008060408385031215610fb157600080fd5b610fba83610f01565b915060208301358015158114610fcf57600080fd5b809150509250929050565b634e487b7160e01b600052604160045260246000fd5b600067ffffffffffffffff8084111561100b5761100b610fda565b604051601f8501601f19908116603f0116810190828211818310171561103357611033610fda565b8160405280935085815286868601111561104c57600080fd5b858560208301376000602087830101525050509392505050565b6000806000806080858703121561107c57600080fd5b61108585610f01565b935061109360208601610f01565b925060408501359150606085013567ffffffffffffffff8111156110b657600080fd5b8501601f810187136110c757600080fd5b6110d687823560208401610ff0565b91505092959194509250565b6000806000606084860312156110f757600080fd5b61110084610f01565b925060208401359150604084013567ffffffffffffffff81111561112357600080fd5b8401601f8101861361113457600080fd5b61114386823560208401610ff0565b9150509250925092565b6000806040838503121561116057600080fd5b61116983610f01565b915061117760208401610f01565b90509250929050565b600181811c9082168061119457607f821691505b6020821081036111b457634e487b7160e01b600052602260045260246000fd5b50919050565b600083516111cc818460208801610e85565b8351908301906111e0818360208801610e85565b01949350505050565b6001600160a01b038581168252841660208201526040810183905260806060820181905260009061121c90830184610ea9565b9695505050505050565b60006020828403121561123857600080fd5b8151610a5b81610e4f565b601f82111561040957600081815260208120601f850160051c8101602086101561126a5750805b601f850160051c820191505b818110156109e457828155600101611276565b815167ffffffffffffffff8111156112a3576112a3610fda565b6112b7816112b18454611180565b84611243565b602080601f8311600181146112ec57600084156112d45750858301515b600019600386901b1c1916600185901b1785556109e4565b600085815260208120601f198616915b8281101561131b578886015182559484019460019091019084016112fc565b50858210156113395787850151600019600388901b60f8161c191681555b5050505050600190811b0190555056fea2646970667358221220e38dcc21d02e8e7b8f0ef325e728c76e39366a742a538822dcbec327fa3d523d64736f6c63430008140033",
  "linkReferences": {},
  "deployedLinkReferences": {}
}