{
  "_format": "hh-sol-artifact-1",
  "contractName": "Multisig",
  "sourceName": "contracts/Multisig.sol",
  "abi": [
    {
      "inputs": [
        {
          "internalType": "address[]",
          "name": "_owners",
          "type": "address[]"
        },
        {
          "internalType": "uint256",
          "name": "_requiredApprovals",
          "type": "uint256"
        }
      ],
      "stateMutability": "nonpayable",
      "type": "constructor"
    },
    {
      "anonymous": false,
      "inputs": [
        {
          "indexed": true,
          "internalType": "uint256",
          "name": "txIndex",
          "type": "uint256"
        },
        {
          "indexed": true,
          "internalType": "address",
          "name": "approver",
          "type": "address"
        }
      ],
      "name": "TransactionApproved",
      "type": "event"
    },
    {
      "anonymous": false,
      "inputs": [
        {
          "indexed": true,
          "internalType": "uint256",
          "name": "txIndex",
          "type": "uint256"
        }
      ],
      "name": "TransactionExecuted",
      "type": "event"
    },
    {
      "anonymous": false,
      "inputs": [
        {
          "indexed": true,
          "internalType": "uint256",
          "name": "txIndex",
          "type": "uint256"
        },
        {
          "indexed": true,
          "internalType": "address",
          "name": "to",
          "type": "address"
        },
        {
          "indexed": false,
          "internalType": "uint256",
          "name": "amount",
          "type": "uint256"
        }
      ],
      "name": "TransactionSubmitted",
      "type": "event"
    },
    {
      "inputs": [
        {
          "internalType": "uint256",
          "name": "",
          "type": "uint256"
        },
        {
          "internalType": "address",
          "name": "",
          "type": "address"
        }
      ],
      "name": "approvals",
      "outputs": [
        {
          "internalType": "bool",
          "name": "",
          "type": "bool"
        }
      ],
      "stateMutability": "view",
      "type": "function"
    },
    {
      "inputs": [
        {
          "internalType": "uint256",
          "name": "txIndex",
          "type": "uint256"
        }
      ],
      "name": "approveTransaction",
      "outputs": [],
      "stateMutability": "nonpayable",
      "type": "function"
    },
    {
      "inputs": [
        {
          "internalType": "uint256",
          "name": "txIndex",
          "type": "uint256"
        }
      ],
      "name": "executeTransaction",
      "outputs": [],
      "stateMutability": "nonpayable",
      "type": "function"
    },
    {
      "inputs": [
        {
          "internalType": "address",
          "name": "",
          "type": "address"
        }
      ],
      "name": "isOwner",
      "outputs": [
        {
          "internalType": "bool",
          "name": "",
          "type": "bool"
        }
      ],
      "stateMutability": "view",
      "type": "function"
    },
    {
      "inputs": [
        {
          "internalType": "uint256",
          "name": "",
          "type": "uint256"
        }
      ],
      "name": "owners",
      "outputs": [
        {
          "internalType": "address",
          "name": "",
          "type": "address"
        }
      ],
      "stateMutability": "view",
      "type": "function"
    },
    {
      "inputs": [],
      "name": "requiredApprovals",
      "outputs": [
        {
          "internalType": "uint256",
          "name": "",
          "type": "uint256"
        }
      ],
      "stateMutability": "view",
      "type": "function"
    },
    {
      "inputs": [
        {
          "internalType": "address",
          "name": "to",
          "type": "address"
        },
        {
          "internalType": "uint256",
          "name": "amount",
          "type": "uint256"
        },
        {
          "internalType": "bytes",
          "name": "data",
          "type": "bytes"
        }
      ],
      "name": "submitTransaction",
      "outputs": [],
      "stateMutability": "nonpayable",
      "type": "function"
    },
    {
      "inputs": [
        {
          "internalType": "uint256",
          "name": "",
          "type": "uint256"
        }
      ],
      "name": "transactions",
      "outputs": [
        {
          "internalType": "address",
          "name": "to",
          "type": "address"
        },
        {
          "internalType": "uint256",
          "name": "amount",
          "type": "uint256"
        },
        {
          "internalType": "bytes",
          "name": "data",
          "type": "bytes"
        },
        {
          "internalType": "bool",
          "name": "executed",
          "type": "bool"
        },
        {
          "internalType": "uint256",
          "name": "approvals",
          "type": "uint256"
        }
      ],
      "stateMutability": "view",
      "type": "function"
    },
    {
      "stateMutability": "payable",
      "type": "receive"
    }
  ],
  "bytecode": "0x60806040523480156200001157600080fd5b50604051620010cb380380620010cb83398101604081905262000034916200027c565b60008251116200007d5760405162461bcd60e51b815260206004820152600f60248201526e13dddb995c9cc81c995c5d5a5c9959608a1b60448201526064015b60405180910390fd5b6000811180156200008f575081518111155b620000e95760405162461bcd60e51b8152602060048201526024808201527f496e76616c6964206e756d626572206f6620726571756972656420617070726f60448201526376616c7360e01b606482015260840162000074565b60005b82518110156200023e5760008382815181106200010d576200010d62000356565b6020026020010151905060006001600160a01b0316816001600160a01b0316036200016b5760405162461bcd60e51b815260206004820152600d60248201526c24b73b30b634b21037bbb732b960991b604482015260640162000074565b6001600160a01b03811660009081526001602052604090205460ff1615620001c95760405162461bcd60e51b815260206004820152601060248201526f4f776e6572206e6f7420756e6971756560801b604482015260640162000074565b6001600160a01b031660008181526001602081905260408220805460ff191682179055815490810182559080527f290decd9548b62a8d60345a988386fc84ba6bc95484008f6362f93160ef3e5630180546001600160a01b03191690911790558062000235816200036c565b915050620000ec565b506002555062000394565b634e487b7160e01b600052604160045260246000fd5b80516001600160a01b03811681146200027757600080fd5b919050565b600080604083850312156200029057600080fd5b82516001600160401b0380821115620002a857600080fd5b818501915085601f830112620002bd57600080fd5b8151602082821115620002d457620002d462000249565b8160051b604051601f19603f83011681018181108682111715620002fc57620002fc62000249565b6040529283528183019350848101820192898411156200031b57600080fd5b948201945b83861015620003445762000334866200025f565b8552948201949382019362000320565b97909101519698969750505050505050565b634e487b7160e01b600052603260045260246000fd5b6000600182016200038d57634e487b7160e01b600052601160045260246000fd5b5060010190565b610d2780620003a46000396000f3fe60806040526004361061007f5760003560e01c80639ace38c21161004e5780639ace38c21461014e578063ab2850da1461017f578063c6427474146101ba578063ee22610b146101da57600080fd5b8063025e7c271461008b578063242232d1146100c85780632f54bf6e146100ea57806399c1aadc1461012a57600080fd5b3661008657005b600080fd5b34801561009757600080fd5b506100ab6100a63660046108f0565b6101fa565b6040516001600160a01b0390911681526020015b60405180910390f35b3480156100d457600080fd5b506100e86100e33660046108f0565b610224565b005b3480156100f657600080fd5b5061011a610105366004610925565b60016020526000908152604090205460ff1681565b60405190151581526020016100bf565b34801561013657600080fd5b5061014060025481565b6040519081526020016100bf565b34801561015a57600080fd5b5061016e6101693660046108f0565b610413565b6040516100bf959493929190610947565b34801561018b57600080fd5b5061011a61019a3660046109c2565b600460209081526000928352604080842090915290825290205460ff1681565b3480156101c657600080fd5b506100e86101d5366004610a04565b6104ec565b3480156101e657600080fd5b506100e86101f53660046108f0565b610663565b6000818154811061020a57600080fd5b6000918252602090912001546001600160a01b0316905081565b3360009081526001602052604090205460ff1661025c5760405162461bcd60e51b815260040161025390610acf565b60405180910390fd5b60035481106102ad5760405162461bcd60e51b815260206004820152601a60248201527f5472616e73616374696f6e20646f6573206e6f742065786973740000000000006044820152606401610253565b6000600382815481106102c2576102c2610af5565b60009182526020909120600590910201600381015490915060ff161561032a5760405162461bcd60e51b815260206004820152601c60248201527f5472616e73616374696f6e20616c7265616479206578656375746564000000006044820152606401610253565b600082815260046020908152604080832033845290915290205460ff16156103a75760405162461bcd60e51b815260206004820152602a60248201527f5472616e73616374696f6e20616c726561647920617070726f766564206279206044820152693a3434b99037bbb732b960b11b6064820152608401610253565b60018160040160008282546103bc9190610b0b565b90915550506000828152600460209081526040808320338085529252808320805460ff1916600117905551909184917f924813d717e221b5f46dcd8a56da1679e4612584ab3237d55e5faabf6f6a30799190a35050565b6003818154811061042357600080fd5b60009182526020909120600590910201805460018201546002830180546001600160a01b03909316945090929161045990610b32565b80601f016020809104026020016040519081016040528092919081815260200182805461048590610b32565b80156104d25780601f106104a7576101008083540402835291602001916104d2565b820191906000526020600020905b8154815290600101906020018083116104b557829003601f168201915b505050506003830154600490930154919260ff1691905085565b3360009081526001602052604090205460ff1661051b5760405162461bcd60e51b815260040161025390610acf565b600380546040805160a0810182526001600160a01b03878116825260208201878152928201868152600060608401819052608084018190526001860187559590955281517fc2575a0e9e593c00f959f8c92f12db2869c3395a3b0502d05e2516446f71f85b6005860290810180546001600160a01b0319169290931691909117825592517fc2575a0e9e593c00f959f8c92f12db2869c3395a3b0502d05e2516446f71f85c84015593519293909290917fc2575a0e9e593c00f959f8c92f12db2869c3395a3b0502d05e2516446f71f85d01906105f89082610bbb565b50606082015160038201805460ff19169115159190911790556080909101516004909101556040518381526001600160a01b0385169082907f6974e8be5912ae917b788db2884a51e71cbe0f0979af347e6a32d07d52ef82a39060200160405180910390a350505050565b3360009081526001602052604090205460ff166106925760405162461bcd60e51b815260040161025390610acf565b60035481106106e35760405162461bcd60e51b815260206004820152601a60248201527f5472616e73616374696f6e20646f6573206e6f742065786973740000000000006044820152606401610253565b6000600382815481106106f8576106f8610af5565b60009182526020909120600590910201600381015490915060ff16156107605760405162461bcd60e51b815260206004820152601c60248201527f5472616e73616374696f6e20616c7265616479206578656375746564000000006044820152606401610253565b600254816004015410156107ad5760405162461bcd60e51b81526020600482015260146024820152734e6f7420656e6f75676820617070726f76616c7360601b6044820152606401610253565b80600101544710156108015760405162461bcd60e51b815260206004820152601d60248201527f496e73756666696369656e7420636f6e74726163742062616c616e63650000006044820152606401610253565b60038101805460ff191660019081179091558154908201546040516000926001600160a01b03169190610838906002860190610c7b565b60006040518083038185875af1925050503d8060008114610875576040519150601f19603f3d011682016040523d82523d6000602084013e61087a565b606091505b50509050806108c05760405162461bcd60e51b8152602060048201526012602482015271151c985b9cd858dd1a5bdb8819985a5b195960721b6044820152606401610253565b60405183907f15ed165a284872ea7017f03df402a0cadfbfab588320ffaf83f160c2f82781c790600090a2505050565b60006020828403121561090257600080fd5b5035919050565b80356001600160a01b038116811461092057600080fd5b919050565b60006020828403121561093757600080fd5b61094082610909565b9392505050565b60018060a01b038616815260006020868184015260a0604084015285518060a085015260005b818110156109895787810183015185820160c00152820161096d565b50600060c0828601015260c0601f19601f830116850101925050506109b2606083018515159052565b8260808301529695505050505050565b600080604083850312156109d557600080fd5b823591506109e560208401610909565b90509250929050565b634e487b7160e01b600052604160045260246000fd5b600080600060608486031215610a1957600080fd5b610a2284610909565b925060208401359150604084013567ffffffffffffffff80821115610a4657600080fd5b818601915086601f830112610a5a57600080fd5b813581811115610a6c57610a6c6109ee565b604051601f8201601f19908116603f01168101908382118183101715610a9457610a946109ee565b81604052828152896020848701011115610aad57600080fd5b8260208601602083013760006020848301015280955050505050509250925092565b6020808252600c908201526b2737ba1030b71037bbb732b960a11b604082015260600190565b634e487b7160e01b600052603260045260246000fd5b80820180821115610b2c57634e487b7160e01b600052601160045260246000fd5b92915050565b600181811c90821680610b4657607f821691505b602082108103610b6657634e487b7160e01b600052602260045260246000fd5b50919050565b601f821115610bb657600081815260208120601f850160051c81016020861015610b935750805b601f850160051c820191505b81811015610bb257828155600101610b9f565b5050505b505050565b815167ffffffffffffffff811115610bd557610bd56109ee565b610be981610be38454610b32565b84610b6c565b602080601f831160018114610c1e5760008415610c065750858301515b600019600386901b1c1916600185901b178555610bb2565b600085815260208120601f198616915b82811015610c4d57888601518255948401946001909101908401610c2e565b5085821015610c6b5787850151600019600388901b60f8161c191681555b5050505050600190811b01905550565b6000808354610c8981610b32565b60018281168015610ca15760018114610cb657610ce5565b60ff1984168752821515830287019450610ce5565b8760005260208060002060005b85811015610cdc5781548a820152908401908201610cc3565b50505082870194505b5092969550505050505056fea2646970667358221220a02b15158a172fb66eed2e33b01fe24c5722154eb6d0cdbc56132a23d3ab662564736f6c63430008140033",
  "linkReferences": {},
  "deployedLinkReferences": {}
}